:1000000000000420B5020000DD020000DF02000055
:10001000E1020000E3020000E50200000000000031
:10002000000000000000000000000000E7020000E7
:10003000E902000000000000EB020000ED020000F9
:10004000CD1A000049330200B11F00006D270000E7
:10005000EF020000EF020000051E0000EF020000AA
:10006000F12500000526000019260000EF0200001F
:10007000EF02000085230000EF020000EF02000005
:10008000EF02000011110000EF020000EF0200007B
:10009000EF020000EF020000EF020000EF0200009C
:1000A000EF020000EF0200002D26000041260000B4
:1000B0009D220000EF020000000000000000000090
:1000C000EF020000AD220000BD220000EF020000A0
:1000D000DD5B0200EF020000EF020000EF02000013
:1000E000EF020000EF020000EF020000000000003D
:1000F00000000000EF020000000000009526000054
:1001000000000000000000000000000000000000EF
:1001100000000000000000000000000000000000DF
:1001200000000000000000000000000000000000CF
:1001300000000000000000000000000000000000BF
:1001400000000000000000000000000000000000AF
:10015000000000000000000000000000000000009F
:10016000000000000000000000000000000000008F
:10017000000000000000000000000000000000007F
:10018000000000000000000000000000000000006F
:10019000000000000000000000000000000000005F
:1001A000000000000000000000000000000000004F
:1001B000000000000000000000000000000000003F
:1001C000000000000000000000000000000000002F
:1001D000000000000000000000000000000000001F
:1001E000000000000000000000000000000000000F
:1001F00000000000000000000000000000000000FF
:1002000010B5054C237833B9044B13B10448AFF350
:1002100000800123237010BD58030020000000005F
:100220005090020008B5034B1BB103490348AFF3DC
:10023000008008BD000000005C0300205090020018
:10024000154B002B08BF134B9D46A3F5803A0021A8
:100250008B460F461348144A121A26F031F80F4BFA
:10026000002B00D098470E4B002B00D09847002061
:10027000002104000D000D48002802D00C48AFF307
:10028000008025F0C3FF2000290002F0F7FB25F0D5
:1002900097FF00BF000008000000042000000000DD
:1002A0000000000058030020DC4300200000000094
:1002B000000000000649074A074B9B1A03DD043B78
:1002C000C858D050FBDC02F0B9FEFFF7B9FF0000C0
:1002D000709002000000002058030020FEE7FEE7B7
:1002E000FEE7FEE7FEE7FEE7FEE7FEE7FEE7FEE7E6
:1002F00007B5002301938DF803300DF1030001F0E1
:10030000E9FA9DF80330032BF7D904210DEB010026
:1003100001F0EAFA18B9019803B05DF804FB002077
:10032000FAE708B500F052FA00F072F8002001F088
:10033000A1FA20B1852802D000F0A6F8FCE7FFF76B
:10034000D7FF26F0A1FA01F0DDFA10B900F09CF811
:10035000FCE708BD01F084B808B500F095F8FCE7AB
:1003600062B6704772B67047FFF7C2BF00F074BA4A
:1003700038B50D4614465AB151B148B101F006FBEB
:100380002946204601F0D8FA10B900F07DF8FCE7C4
:1003900038BDEFF30580003018BF01207047000022
:1003A00007B54FF080531A6E596E064B02F0FF02EC
:1003B0001343CDE900130822694625F059FF03B025
:1003C0005DF804FB0036CEF400487047740300204B
:1003D00001F05CB87047704701F06CBA08B50020B6
:1003E00001F048FA10B100F04FF8FCE708BD10B575
:1003F000044658B1FFF7F0FF204600F049FA01F03B
:1004000045F800F063FA0446FFF7E8FF204610BD08
:1004100008B505F0F1FB48B9054B1A78054B1B7878
:10042000134303D0BDE8084005F0ECBB08BD00BF96
:1004300015020020180200202DE9F84306460D465B
:1004400005F0DAFB28B10E4FDFF838804FF00009D5
:100450000DB9BDE8F8833868C0F10804AC42A8BF04
:100460002C4631462246404425F002FF3B68234497
:10047000082B08BF4B4626442D1B3B60E8E700BF16
:10048000C0030020B8030020024B1A680AB1002202
:100490001A607047C00300200378022B01D805F0D2
:1004A000BFBB70474FF0102358694FF08053411C79
:1004B0001A695B6908BF03FB02F0A0F510407047A2
:1004C00010B54FF010234FF080525B6911695269EB
:1004D0000B4C581C08BF02FB01F32361FFF7E2FF3E
:1004E000084BE06000220849C3F80821204600F0CC
:1004F000BDFE18B1BDE81040FFF72EBF10BD00BF14
:1005000030030020C4030020247B02004FF480400D
:1005100070470220704708B513460A4631B143B10F
:100520000146184625F0A4FE002008BD6FF00A0021
:10053000FBE76FF00B00F8E70128F8B507460C461B
:1005400016461D4610D80B44B3F5804F0FD28AB122
:100550009DB1FFF7A7FF04EB873101442A463046DF
:1005600025F086FE0020F8BD6FF03800FBE76FF045
:100570001600F8E76FF00B00F5E76FF00C00F2E7FC
:100580000128F7B507460C4616461D4624D80B44ED
:10059000B3F5804F23D22AB3AB0826D0FFF782FFF2
:1005A00004EB8734044405F043FB07460028FAD1E6
:1005B00005F02EFB214600972B4632460C4800F0F2
:1005C0007FFE044605F034FB0028FBD1201C18BF39
:1005D0000120404203B0F0BD6FF03800FAE76FF041
:1005E0001600F7E76FF00B00F4E76FF00C00F1E78F
:1005F0003003002001282DE9F041064624D8FFF7FA
:1006000051FFDFF8508000EB863505F5804705F097
:100610000FFB04460028FAD105F0FAFA234601221E
:100620002946404600F07AFE88B905F001FB0446F1
:100630000028FAD105F58055AF42E8D1304605F0E3
:10064000FFFA2046BDE8F0816FF03800FAE74FF07E
:10065000FF30F7E73003002010B5084CD4F808311C
:1006600053B19BB22246D4F8041194F80001FFF76D
:1006700087FF0023C4F8083110BD00BFC403002069
:100680002DE9F8431C4C1E46D4F8083181460F462C
:1006900090466BB194F80021824207D1D4F804212E
:1006A0001A44914202D1B3F5807F01D1FFF7D4FF04
:1006B000D4F8080118B984F80091C4F80471C0F5A1
:1006C0008075B54234BFADB235464DB12A4641467C
:1006D000204425F0CDFDD4F808312B44C4F808316E
:1006E000761BB6B216B93046BDE8F883FFF7B4FF03
:1006F0002F44A844DCE700BFC403002007B50C4B1F
:1007000018680090FFF7CEFE042200F500410DEBC3
:10071000020025F0ADFD042269460DEB020025F034
:1007200099FDB0FA80F0400903B05DF804FB00BF0A
:10073000C87A020038B505460C46FFF7B3FE00F54F
:1007400000402A4621460430BDE83840FFF7E3BEAA
:1007500070B506460D461446FFF7A4FE04F50044A6
:100760000434324629462044BDE87040FFF7D3BE2A
:1007700000487047CC7A020002490022C0E900120A
:10078000704700BF040003067047B0F5A27F01D197
:1007900005F058BA7047000010B5084CFFF7E2FDAD
:1007A0002378012B05D1FFF7E3FF01F0AFFE002313
:1007B0002370BDE81040FFF7D3BD00BFE804002060
:1007C000014B1878704700BFE80400201FB502A84D
:1007D000FFF7D2FFFFF7CCFF104A02A901F010FE8D
:1007E00008B1FFF7B9FDFFF7C3FF0368D3F8104561
:1007F000FFF7BEFFE2B24FF47031012421FA02F29A
:1008000002232146009401F0DDFEFFF7B1FF01F065
:1008100063FE034B1C7004B010BD00BF8B070000CB
:10082000E804002008B5FFF79DFD0A4B1B782BB9A3
:10083000FFF7CCFFBDE80840FFF792BDFFF798FF38
:1008400001F08CFE0028F5D1FFF792FF01F044FE85
:10085000F0E700BFE804002038B5FFF783FD0B4B3D
:100860001B78012B0FD1FFF783FF022101F082FEDD
:10087000044608F093FF0546FFF772FD4FF47050F1
:1008800000FB054038BD0024F3E700BFE80400206A
:1008900010B5044625F04AFB094B186074B1094BAA
:1008A000094A18604FF47A706043002158609A60DA
:1008B000D9601846BDE8104025F044BB10BD00BF0C
:1008C000D0040020D40400208907000008B525F0DA
:1008D0002DFB054B1B68C3F57973033318444FF4A4
:1008E0007A73B0FBF3F008BDD004002030B50F4D93
:1008F0008BB021F051FA0FCD01AC0FC40FCD0FC456
:100900002B68236001A823F0A9FFFFF763FD0120F6
:1009100021F0B4FA21F066FA032801D121F06EFA31
:10092000012021F0ADFA0BB030BD00BFD47A020037
:1009300021F02EBA07B5ADF806000DF1060021F042
:1009400025FA03B05DF804FB07B5ADF806000DF11C
:10095000060021F01FFA03B05DF804FB10B54FF458
:1009600070544443204621F066FA0028FAD010BDA6
:1009700021F0F6B921F003BA10B5044621F001FACE
:10098000207010BD003018BF012021F077BA003070
:1009900018BF012021F070BA08B921F032BA21F055
:1009A00038BA08B521F01EFAC31E5842584108BD96
:1009B00008B521F017FA023818BF012008BD10B59C
:1009C0000446012C104604D0042C05D000242046F7
:1009D00010BD21F057FAFAE70021BDE8104021F0E0
:1009E0001EBA10B50C46FFF7EFFC036A0133036231
:1009F0002046BDE8104002F007BF21F021BA10B533
:100A00000C46072942D8DFE801F004171D23292FDF
:100A1000353BFFF7D9FC436A01334362012000FAFA
:100A200004F414F0DA0F03D114F0240F2ED00420B4
:100A3000BDE8104002F022BFFFF7C6FC836A013315
:100A40008362EBE7FFF7C0FCC36A0133C362E5E7EB
:100A5000FFF7BAFC036B01330363DFE7FFF7B4FC76
:100A6000436B01334363D9E7FFF7AEFC836B01337C
:100A70008363D3E7FFF7A8FCC36B0133C363CDE700
:100A8000FFF7A2FC036C01330364C7E710BD2DE937
:100A9000F04105460E4617469846FFF795FC046858
:100AA0000134046043463A4631462846BDE8F041E9
:100AB00002F008BF08B506280AD8DFE800F0040DE8
:100AC00013191F252B00FFF77FFC43680133436098
:100AD000134B00221A6008BDFFF776FC83680133D0
:100AE0008360F5E7FFF770FCC3680133C360EFE78D
:100AF000FFF76AFC036901330361E9E7FFF764FC70
:100B0000436901334361E3E7FFF75EFC8369013327
:100B10008361DDE7FFF758FCC3690133C361D7E7A1
:100B2000203800201FB50021039001AA44F20100E3
:100B3000CDE90111FFF74FFC05B05DF804FBD0E9EA
:100B40000223D1E90201994208BF90422CBF012043
:100B5000002070472DE900480C4800F0C4FA0C4B07
:100B6000D3E9002312EB000B43F1000C094BD3E94E
:100B700000239C4508BF93455846614603D21BF1AC
:100B800080704CF10001BDE8008800BF000000202B
:100B9000F00400206805002037B505460C460A48D9
:100BA00001A900F0D2FA60B10570446001A90648BD
:100BB00000F0F5FA18B1054800F09AFA002003B0E9
:100BC00030BD0420FBE700BF5405002000000020DA
:100BD0002DE93048184B1B7804461BB900252846E0
:100BE000BDE830880028F9D0037F03F0FF05002B13
:100BF000F4D0FFF7AFFFD4E90223994208BF904237
:100C000015D3236903B92377D4E9053098472169BF
:100C10000029E3D0237F03F0FF05002BDED0D4E9C9
:100C2000022312EB010B43F1000CC4E902BC214684
:100C3000024800F020FDD2E7F8040020FC7A020010
:100C400013B5114B11491868019008235822104818
:100C500000F068FA044698B90E4A0F4801A900F05E
:100C60003DF9044660B901210B4800F01DFA01234B
:100C70000A4A0948194600F079F9094B01221A700D
:100C8000204602B010BD00BFF87A0200FC0400202C
:100C900054050020F90C000000000020FFFF7F0039
:100CA000F80400203AB103685A614A1E514251418A
:100CB0001961002070470720704738B5037F04464C
:100CC0000D4683B98261FFF745FF421941F10003E8
:100CD000C4E90223236903B1256121460020BDE850
:100CE0003840FFF759BF002038BD0000014800F030
:100CF000FAB900BF000000202DE9F04F85B0814611
:100D000000F0DBF940B15B4AD2E9003113F18073A6
:100D100041F10001C2E900310021484600F0DDF94F
:100D200038B1554C236823B12068FFF751FF0023E9
:100D300023600121484600F0D0F920B1FFF70AFFF7
:100D40004E4BC3E9000103A94D484B4D4D4CDFF814
:100D5000388100F034FA002846D1DFF828A1464C4B
:100D6000DFF828B1504600F09CFC2368002877D0BB
:100D70007BB12368D0E90201D3E90223994208BF7D
:100D800090422ED223681B7F1BB12168504600F091
:100D900072FC504600F07FFCD0E9028305460193C7
:100DA000FFF7D8FE019BB8EB000663EB0107012EAD
:100DB00077F1000347DBDFF8D880464541D9FFF7DC
:100DC00095FF00EB08024FF496030021584600F00F
:100DD000F1F800283FD1236813B9484600F0BEF867
:100DE000256005B0BDE8F08F0378012B1ED05BB104
:100DF000022B12D14FF0000A204600F04CFC0028D4
:100E000034D080F81CA0F7E743681A7F2AB9012282
:100E10001A774168204600F02EFC03A9184800F01C
:100E2000F9F903A9164800F0CAF994E741682B685C
:100E3000994202D100232B60EFE7204600F034FCFA
:100E4000EBE7AA68BFE70021584600F03BF92846C7
:100E5000FFF7BEFE01E00D28F9D00023236081E7F3
:100E6000002BBED1484600F07DF8BAE7012388F890
:100E70000030D2E7F0040020700500206805002053
:100E800054050020FC7A0200F80400200000002035
:100E9000FFFFB40072B6024A136801331360704753
:100EA00074050020034A1368013B136003B962B65E
:100EB000704700BF74050020FFF7ECBFFFF7F2BFDB
:100EC000435882B03BB10023435043580193019BE8
:100ED000012002B070471846FBE7000030B51B4CFC
:100EE000437944F823201A4C04EBC3031B7953BB0A
:100EF00003680A88C3F8082590F904308A78002B23
:100F00004FEA4212AFBF03F1604303F00F031149F0
:100F1000D2B2A9BF03F56143CA54D2B283F8002309
:100F200090F904300C495D09012203F01F0302FA15
:100F300003F341F82530437904EBC30144F833004F
:100F40000A71002030BD0820FCE700BF80050020AA
:100F50007805002014ED00E000E100E003680122C4
:100F60001A607047036801225A607047F7B5056838
:100F70004FF480348C40C5F808430568C5F84843F1
:100F800001F15005AD000668ADB2002777517559E3
:100F90000195019D056801F5A87122F07F4245F891
:100FA00021200268C2F8444313B10368C3F8044324
:100FB00003B0F0BD2DE9F34799464FF4803803683C
:100FC00008FA01F8C3F848830368C3F8088322F0DD
:100FD0007F4502680E46D2F8041502EB860206F140
:100FE0005007D2F84035C2F84015BF00BFB20268C2
:100FF0004FF0000A42F807A05B1AD259009223F082
:101000007F43012B0446009A0BD1264B4FF480609E
:1010100043F001039847236843F807A0DB59019385
:10102000019B2368D3F80475C3F84483EB1B23F0BA
:101030007F43012B06F5A876236819D1013543F8C3
:101040002650184B4FF4806043F001039847236803
:10105000D3F804359F4209D12368C3F84483236839
:101060000020C3F8048302B0BDE8F0870D20FAE742
:1010700043F826502068D0F804156A1A013AC9F1DD
:10108000FF1322F07F4203F57F439342EED3002A01
:10109000E2D1013540F826502368D3F8043599424F
:1010A000D9E700BF107B020002680223C2F8443374
:1010B00011B10268C2F8043370474FF482710068BE
:1010C000FFF7FEBE4FF4803303FA01F10368C3F863
:1010D00048130368C3F8081370475031890089B278
:1010E0000068FFF7EDBE0368D3F804057047000001
:1010F00090F9043001215A0903F01F0301FA03F3A8
:101100004032024941F82230704700BF00E100E060
:10111000024B034A1B681068184700BF8005002077
:101120007805002010B561B1B2FBF3F403FB142481
:10113000A4B244B9C0E9001484608281C38120460E
:1011400010BD0E20FCE70920FAE737B550E8013F53
:101150009DB2C48925448489A54228BF2D1B0489DA
:10116000A54202BFBFF32F8F002207E0C5EA0305A7
:1011700040E80154002CE9D14FF001028DF8032022
:101180000193019B9DF803200B6002F0FF0322B145
:101190000B880068184403B030BD1846FBE70A8886
:1011A0004B889A4209D150E8012FC2EA024240E836
:1011B0000123002BF7D1012070470020704737B57D
:1011C00050E8023F1FFAA3F5C488A54202BFBFF34F
:1011D0002F8F00220DE0C48925448489A54228BFB1
:1011E0002D1BC3EA054540E80254002CE8D14FF01E
:1011F00001028DF803200193019B9DF803200B60F1
:1012000002F0FF0322B14B880068184403B030BDE0
:101210001846FBE70A884B889A4209D150E8022F0A
:10122000C2EA224240E80223002BF7D10120704796
:101230000020704750E8002F42EA010340E8003CDC
:101240009CF0000FF6D11046704750E8003F03EACB
:10125000010240E8002C9CF0000FF6D110467047C8
:101260000121FFF7E7BF0021FFF7EFBF0B4620B1D9
:101270001BB103601B68114618470E207047F0B47D
:10128000A8B1A2B1D0F800C0BCF1000F12D09BB140
:101290008E0713D1C668B14210D34C1E05691C4499
:1012A000AC420BD8DCF80840A446F0BC60470E20E6
:1012B000F0BC70470820FBE70920F9E71020F7E7AA
:1012C0002DE9F04108B302B3D0F800E0BEF1000F01
:1012D0001ED0FBB14768D7F80480B3FBF8F708FBD2
:1012E0001737BFB942EA010C1CF0030F14D1C768CD
:1012F000B94211D34C1E05691C44AC420CD8DEF82F
:101300000C40A446BDE8F04160470E20BDE8F081E6
:101310000820FBE70920F9E71020F7E7F0B5D8B17E
:10132000D0F800C0BCF1000F18D0CAB14768D7F898
:1013300000E00EF1FF370F4214D1C768B94211D354
:101340004C1E05690EFB0244AC420BD8DCF8104081
:10135000A446BDE8F04060470E20F0BD0820FCE741
:101360000920FAE71020F8E7014B4360002070479E
:10137000187B02000846704700207047024B18682F
:10138000003018BF012070478405002008B50248CE
:10139000FFF769FF002008BD8405002008B510464E
:1013A0001A4624F065FF002008BD00002DE9F04337
:1013B000814687B014480F4616469846FFF750FFFF
:1013C0000446F0B90546AE4215D10F48FFF74BFF72
:1013D000D9F808305BB102228DF800200022CDE957
:1013E0000127CDE90326CDF81480684698472046AA
:1013F00007B0BDE8F08307EB053000F0D7FA013500
:10140000E1E71124F3E700BF840500202DE9F04156
:10141000804686B011480F4616461D46FFF720FF4E
:101420000446C8B9AA083146384600F0D7FA0B4836
:10143000FFF719FFD8F8083053B101228DF80020CA
:101440000C9A0592CDE90147CDE9036568469847B6
:10145000204606B0BDE8F0811124F9E7840500209C
:10146000064B10B500241C70054B1C60BFF35F8F4A
:101470000449054800F0F6F8204610BD900500200C
:1014800094050020447B02008805002008B5002058
:10149000FFF712FDF1EE103A23F09F03E1EE103A50
:1014A000BFF35F8F054B4022C3F884210020FFF774
:1014B00005FD20BF40BF20BF08BD00BF00E100E028
:1014C000026813685268934291BFD01A8068013055
:1014D000801888BFC01A70472DE9F04103681F6863
:1014E0001D685B689D4284BF836801331646884649
:1014F0005D1BC2684168AE42044607FB02110CD86E
:101500007243404624F0B4FEA3683E449E4288BF26
:10151000002623681E60BDE8F08105FB02F73A460D
:10152000404624F0A5FEE2686168751B6A4308EB3B
:10153000070024F09DFE23681D60ECE703688168C6
:101540001A685B688B4234BF01330023D31A5842B8
:1015500058417047F8B5044600200D46FFF7ACFC33
:101560002046FFF7EBFF10B1237C002B3DD1216813
:10157000A6684B684A68B24234BF013200224A6012
:1015800038B12168A0680A68824234BF0132002263
:101590000A60E2686068511E072920D8DFE801F080
:1015A00004101F141F1F1F182A78C2542046FFF76B
:1015B00087FF23689A68824200D29860002415E071
:1015C0002A8820F81320F1E72A6840F82320EDE765
:1015D000D5E9006700EBC300C0E90067E6E72946EC
:1015E00003FB020024F044FEE0E704240020FFF7A0
:1015F00065FC2046F8BD70B505460E46144682B11E
:101600000020FFF759FC2846FFF75AFFA0420AD3F3
:10161000224631462846FFF75FFF00240020FFF7EF
:101620004DFC204670BD0524F8E710B504460020A7
:10163000FFF742FC20680C22002124F041FE00202C
:10164000BDE81040FFF73ABC10B504460020FFF794
:1016500033FC2046FFF734FF04460020FFF72EFC42
:10166000204610BD01600B6843604A68934204BF86
:1016700000234360704770B5446806460D462068F5
:1016800018B1B3682946984718B923682B602560BC
:1016900070BD2468F3E74368186808B102681A60EF
:1016A00070474368186870474368186800B9704706
:1016B000884203D102681A6001207047034600681F
:1016C000F4E7000038B5074C051E04F1080318BF05
:1016D0001C4623682BB11A6822605B68284698472D
:1016E000F7E738BDA005002070B50A4C25787DB914
:1016F00009486560A5602561E56000F099F9064636
:1017000000F0A4F9012384F820502370304670BD06
:101710008526FBE798050020ED17000038B5134C2F
:10172000A378054603F0FF0073B115B16B68012083
:1017300098470020FFF7C0FBE3680133E360002017
:10174000BDE83840FFF7BABBFFF7B6FB25B1226909
:1017500013463BB92A602561E368002BECD100F009
:1017600087F9E9E79D42F7D01B68F2E7980500206A
:1017700038B5134C6378054603F0FF0073B115B11B
:101780006B68002098470020FFF796FB63680133E1
:1017900063600020BDE83840FFF790BBFFF78CFB8B
:1017A00025B1A26813463BB92A60A5606368002B87
:1017B000ECD100F06AF9E9E79D42F7D01B68F2E747
:1017C0009805002038B5084C0020FFF775FB6368CA
:1017D000013B6360656815B900F064F9657000202D
:1017E000BDE83840FFF76ABB9805002010B50446F5
:1017F00030B9144B01225A70BDE81040FFF762BFA8
:10180000012806D0022807D10F48BDE81040FFF795
:10181000AFBF0C4B9870EFE7032800D010BDFFF767
:10182000D1FF084A002192F8203082F82010D269B6
:10183000DBB2002AF2D0042B0CBF20460220BDE808
:101840001040104798050020AC05002007B58DF822
:1018500007000DF107010648FFF77CFE0448FFF77B
:101860006DFE08B100F072FD03B05DF804FB00BF2F
:101870005490020038B50C4D2B7893B90B4B0C49A2
:10188000002808BF18460388284620F8013F00F0CA
:101890001DFD044618B900F047FD01232B702046BA
:1018A00038BD8524FBE700BF0C060020507B0200FA
:1018B0004D18000008B500F049FD00F04FFD034849
:1018C000FFF7B3FE024B00221A7008BD54900200CD
:1018D0000C06002010B504460248FFF7B5FE207044
:1018E00010BD00BF5490020010B50A4601460448DE
:1018F000FFF781FE044600F017FD204610BD00BF33
:1019000054900200074A084B1360084A03F1100183
:101910001160074A03F120011160064A0120C2F854
:1019200004357047480600201806002014060020E1
:101930001006002000E0004010B5114B0446186866
:10194000884202D0102224F093FC0E4B0022C3F8F0
:10195000002101221A604FF08070D3F8002162B19B
:101960000022C3F80021084B1968A14203D01022BD
:10197000204624F07DFC012001E00138EDD110BDAE
:101980001406002000E0004010060020024B014633
:101990001022186824F06CBC48060020024AD2F8D5
:1019A0000034002BFBD0704700E001400A4908B525
:1019B0000223C1F80435BFF36F8FBFF34F8FC1F817
:1019C0000805FFF7EBFF0023C1F80435BFF36F8F65
:1019D000BFF34F8F08BD00BF00E001400E4B10B5B4
:1019E0000124C3F80445BFF36F8FBFF34F8F01EBA2
:1019F0008204401AA14208D1074B0022C3F80425F3
:101A0000BFF36F8FBFF34F8F10BD431851F8042BF6
:101A10001A60FFF7C3FFEDE700E0014000F18040EE
:101A2000002382B0036003680193019B02B07047FA
:101A3000054A13792BB901211060937191801846E2
:101A400070478520704700BF4C060020074B1A687E
:101A5000D2075FBFC02283F8002301221A604FF033
:101A600080430022C3F81825704700BF00E100E062
:101A700008B54FF48270FFF7D1FF4FF08043022288
:101A8000C3F8042301229A6008BD08B54FF48070A2
:101A9000FFF7C4FF4FF080430122C3F804231A600C
:101AA00008BD0000074B01221A604FF08042D2F8B7
:101AB0000C3403F00113B3F1011FF8D0024B0022E4
:101AC0005A717047040000404C06002010B5244BAA
:101AD0001B6873B14FF48070FFF7A0FF4FF0804395
:101AE0000122C3F808231F4B587910B95A711B689B
:101AF00098471D4B1B6863B14FF48270FFF78EFF50
:101B00004FF080430222C3F80823164B01201B68C4
:101B10009847164B1B6863B14FF48870FFF77EFF40
:101B20004FF080431022C3F808230E4B02201B689D
:101B300098470F4B1B6893B10E4B00221A604FF46D
:101B40008670FFF76BFF4FF080430821C3F808133E
:101B5000044B9A7103201B68BDE81040184710BD64
:101B6000000100404C06002004010040100100402C
:101B70000C010040340C004000F1804000F5C040F2
:101B8000002382B0036003680193019B02B0704799
:101B900003681F2B83BF03F01F03036001484FF04E
:101BA000A04070470003005007B5019001A8FFF75F
:101BB000EFFF019B00EB8300D0F8002722F44032B6
:101BC000C0F80027D0F8003743EA0143C0F80037D7
:101BD00003B05DF804FB0000054B4FF0FF3207280F
:101BE00043F8202084BF1B1883F85820704700BF9B
:101BF0005406002010B5174C94F86A3043BB04F12A
:101C000030033021FF22013911F0FF0103F8012BCD
:101C1000F9D1C8B2FFF7E0FF01310C29F9D1062252
:101C200000210D4824F04CFB0C4BC02283F8062306
:101C300040221A604FF4BE70FFF79EFF084B4FF032
:101C40000042C3F80423012384F86A30002010BD49
:101C50000820FCE754060020B806002000E100E060
:101C600000600040034B93F86A00003018BF012069
:101C7000704700BF54060020F7B53B4E33180546A9
:101C800093F93030002B6CDA8B78C3F34003002BD0
:101C90000BBF082400240C200820844202D1042019
:101CA00003B0F0BD56F82470013743D1701946F8DF
:101CB000242080F8304013B9331983F858508B78BA
:101CC0005A0717D4D80737D501A80195FFF760FF49
:101CD000019B00EB8300D0F8003723F00203C0F82B
:101CE00000372248EA0805F007070123BB40875C5C
:101CF0003B43835488780A7810F0020028D0A4006F
:101D000004F1804404F5C0442D02D4F8103523F4C6
:101D10004F3323F44073C4F810351204D4F810354F
:101D200005F47C5502F4403215431D43C4F81055A8
:101D30000020B5E70134B0E701A84A780195FFF724
:101D400027FF019B03F5E073920040F82320C8E7CA
:101D5000083C344494F8605045EA821284F86020CC
:101D60009EE708209CE700BF54060020B80600202C
:101D700073B5224C2518064695F93020072A19DD3F
:101D8000224492F858309B09032B0FD1019001A8EF
:101D9000FFF7FEFE019AD0F81035D340DB0707D4D9
:101DA00002213046FFF700FF02B070BD012BF7D0D3
:101DB0000321F6E7D3B2072BF6D8930003F1804353
:101DC00003F5C043D3F8100540F00100C3F8100537
:101DD00002F14000800080B2FFF7CEFE0029E3D080
:101DE00095F9303054F82330002BDDD0012303FA6D
:101DF00002F2034BC3F80423D6E700BF54060020C9
:101E0000006000402DE9F04F002489B0CDE9024484
:101E1000624D4FF48072012102F1804303F5C0430B
:101E200090B21B68012B06D1D5F804330B4202D0C7
:101E3000FFF7A2FE0C430432B2F5907F4FEA410156
:101E4000EAD1574B1B68012B0ED14FF4BE70FFF740
:101E500093FE4FF0A04344F00044D3F810350293B2
:101E6000504BD3F81035039314F0FF0F1AD04E4F98
:101E700001260025264210D0AB0003F1804303F574
:101E8000C043D3F81005D3F8101557F8253023B107
:101E9000C1F30141C0F3052098470135082D4FEAF1
:101EA0004606E7D1002C75DA0DF1100800230493E3
:101EB000C8F804304FF0FF33CDE90633DFF8E8A06F
:101EC000DFF8E89000252F4619F9014B631C48D034
:101ED000E4B2012324F0C00604F0070203FA02F280
:101EE000F00808AB191811F8083C134239D00AEB76
:101EF0000603A40993F930305AF823B0BBF1000F60
:101F000008D1032C2DD118F800C04CEA020C08F8B7
:101F100000C001E0032CF6D001A80196FFF738FEBF
:101F2000019B11F8181C03F5E07C114250F82C00BD
:101F3000C0F3014005D0022813D1032C0BD1214658
:101F400004E003280DD1032C05D102213046FFF710
:101F50002BFE0135EDB2BBF1000F02D02146304619
:101F6000D8470137042FAFD1A5B14FF0A043029954
:101F7000D3F8102503F540739142D3F8103502D100
:101F80000399994206D002920393049A059B069204
:101F9000079395E709B0BDE8F08F00BF00600040EF
:101FA0007C6100400003005054060020B40600206D
:101FB000014B1B68184700BFC00600200023435098
:101FC00082B043580193019B02B0704770B5D0F8BE
:101FD000103105460C4653B14FF48871FFF7EEFF00
:101FE00063795A0703D523680BB101209847D5F8C8
:101FF00014315BB14FF48A712846FFF7DFFF637934
:102000001B0703D523680BB102209847D5F81C3174
:102010005BB128464FF48E71FFF7D0FF607910F066
:10202000100002D1236803B19847D5F8043163B199
:102030004FF482712846FFF7C1FF01232371236803
:102040001BB10320BDE87040184770BD38B51D4670
:1020500002230B710B684A7104467BB112F0040F26
:102060000CBF82219221100748BF41F02001D30606
:10207000236848BF21F08001C3F8001320684FF4A3
:102080008271FFF79BFF206812F0800F05BF0123CC
:1020900043514019002038BD2DE9F04F07795A4DC2
:1020A0004FEAC70805EB080385B01B7904460E46C6
:1020B000002B40F0A68045F83720DFF858E101F109
:1020C000FF3C06F1030B69464FF001091CF8012F94
:1020D000FF2A00F0928022F0800310060B607FD56B
:1020E0001F2B87BF02F01F00F24618464FF0A04A90
:1020F00009FA00F0CAF808051F2B8ABF02F01F0377
:102100004FF0A042724603F5E073032042F823002B
:10211000DC4501F10401D9D12368009AC3F8602598
:10212000019AC3F86425029AC3F86825039AC3F894
:102130006C2523680122C3F800252368B179328910
:102140007079C3F80C05C3F80415C3F80825236893
:102150007289C3F8102522680023C2F80032226871
:10216000C2F800334FF48E712068FFF727FF4FF459
:1021700088712068FFF722FF4FF48A712068FFF70B
:102180001DFF4FF482712068FFF718FF55F83730B4
:10219000FBB121683279090B4BB2002BAEBF03F1C2
:1021A000604301F00F01194B4FEA4212D2B2AABFAD
:1021B00003F561435A5483F8002323681B0B5AB27A
:1021C000012103F01F0301FA03F35209104941F8FA
:1021D0002230454401232B71002005B0BDE8F08F6B
:1021E0001F2B87BF02F01F00F24618464FF0A04A8F
:1021F00009FA00F0CAF80C057EE74FF0FF330B60D8
:1022000086E70820E9E700BFC806002014ED00E0DB
:1022100000E100E00003005070B40C461D461E496A
:102220000379266801EBC3010368C3F82065A6881B
:10223000C3F82465A668C3F82865E668C3F82C656A
:1022400003682668C3F84065A688C3F84465A66895
:10225000C3F84865E468C3F84C45046802F001031C
:1022600003EB5202C4F81425EA0712D415F0020257
:1022700003D0002B14BF082204220468002BC4F8EA
:10228000002218BF0C23EAB208BF082370BCFFF776
:10229000DDBE1022F1E700BFC80600200149024858
:1022A000FFF794BEC806002000C001400149024863
:1022B000FFF78CBED0060020001002400149024802
:1022C000FFF784BED80600200020024010B5124C53
:1022D0002278FAB9114B1960037813F0010F104BF3
:1022E0001EBFD3F8042542F00102C3F80425D3F839
:1022F000002222F00102C3F800224378094A5B0160
:10230000DBB282F80D334FF40053136001232370C6
:10231000002010BD8520FCE7E4060020E006002038
:1023200000D0004000E100E0064B00221A6082B0BD
:102330001B680193019B044B0122C3F804231A601C
:1023400002B0704700D1004000D00040024A012393
:10235000C2F808335360704700D00040064A01239A
:10236000C2F808335360054B4FF40052C3F8802085
:10237000034B00221A70704700D0004000E100E0DB
:10238000E4060020074B00221A6082B01B6801930C
:10239000019B054BD3F80805044B1B68C0B202B083
:1023A000184700BF00D1004000D00040E0060020E8
:1023B0002DE9F347002406460F46904600F5A07528
:1023C0004FF48039A2462B688BB1D6F8043309FA52
:1023D00004F21A420BD0C5F800A02B680193A000AC
:1023E00000F5A070019B80B2D7E900319847013415
:1023F000A04505F10405E6D102B0BDE8F087000074
:10240000F7B50679314D0C2474432F193B7A002B14
:102410005AD12A514A687A609C461A46477903681D
:10242000D4B2A74246D81B0B5AB2CC78284F002A08
:10243000AEBF02F1604303F00F03264A4FEA441493
:10244000E4B2AABF03F56143D45483F800430368A0
:102450001B0B5CB26409012203F01F0302FA03F3B1
:1024600047F8243007684B78D7F8044503F0030396
:1024700024F003042343C7F8043507688B78D7F8A2
:10248000084503F0030324F003042343C7F8083589
:1024900004680B78D4F8100503F00F0320F00F0048
:1024A0000343C4F810350C2303FB065500202A72A1
:1024B00003B0F0BDA40004F5A074013243F804C0D9
:1024C0001B590193019BA9E70820F1E7E8060020CA
:1024D00000E100E014ED00E0036801221A600379D6
:1024E000034A0C2101FB032302221A72704700BF2A
:1024F000E80600200368044901221A6103790C20D0
:1025000000FB03131A727047E806002038B5036811
:102510001B0B5AB20121520903F01F0301FA03F306
:1025200020320C4941F8223003680025D3F80022FC
:10253000C3F8005203684FF0FF320446C3F8082383
:10254000FFF7D8FF2379044A0C2101FB03231D72F6
:1025500038BD00BF00E100E0E80600200379044A2E
:102560000C2101FB0323187A831E584258417047FF
:10257000E806002010B58B0040330268DBB201246E
:10258000D45001F5A871036853F8210010BD73B54C
:102590004FF480348C4005688BB18B0003F5A07339
:1025A0000026EE50EB580193019B0368C3F80443E7
:1025B000036801F5A87143F8212002B070BDC5F889
:1025C0000843F5E7F0B4076840F20115D7F8004278
:1025D0008D4024EA0504C7F800420568D5F800429A
:1025E0002343C5F800329DF81030F0BCFFF7CFBF91
:1025F000042202490248FFF7DBBE00BFE8060020C4
:1026000000800040042202490248FFF7D1BE00BF0B
:10261000F406002000900040042202490248FFF71F
:10262000C7BE00BF0007002000A0004006220249EC
:102630000248FFF7BDBE00BF0C07002000A001400C
:10264000062202490248FFF7B3BE00BF1807002068
:1026500000B001401F2886BF00F01F00044A4FF061
:10266000A042012303FA00F0C2F80805704700BF3A
:10267000000300501F2886BF00F01F00044A4FF0DF
:10268000A042012303FA00F0C2F80C05704700BF16
:102690000003005007B5124BD3F81831EBB1114BC2
:1026A000114900221A6091F820001B680193FF284D
:1026B000019B05D08B7F1BB9CB7F5BB1FFF7DAFFA6
:1026C00000234B770B72D1E90031084803B05DF865
:1026D00004EB1847FFF7BEFFF2E703B05DF804FB19
:1026E00000F0024018F10240240700202C070020CF
:1026F0000023435082B043580193019B02B07047BE
:102700000B7B032B2DD8DFE803F025291D028A68F7
:10271000154B9A4204D1D0F84C350A699A4209D136
:102720008A6840F202239A421BD1D0F84C354A699C
:102730009A4216D000230622C0F80035C0F80025C2
:1027400018467047D0F84C350A699A42F2D1D0F851
:102750003C35ECE7D0F84C350A69E9E7D0F83C3570
:10276000FAE70120704700BF00020400F0B54D4AAF
:102770004D4CD2F8243187B01546B3B14FF4927165
:102780001046FFF7B5FFD2F8043173B9A368C2F859
:1027900008330223A360A368C2F804330123136241
:1027A000536184F82E3007B0F0BDD5F80431002B0A
:1027B00042D03E4D3B484FF48271FFF799FF0FCD59
:1027C00001AE0FC62B68336094F82E3043B9A5F1E3
:1027D0001C013448FFF794FF80F0010084F82E00BC
:1027E0004FF4B0712F48FFF783FF4FF4AE712D48BF
:1027F000FFF77EFF94F8303013B194F82E303BB1E0
:10280000284B0022C3F80022A260294AC3F80823FB
:10281000244AD2F8C434C2F8C4349A0736D5012306
:102820008DF8003094F830300BB984F82F30D4E9AB
:10283000003168469847B6E74FF4A4711948FFF78E
:1028400057FF237B83B9194F0FCF01AE0FC63B68EB
:10285000336094F83030002BDAD1C5F80032A36031
:10286000134BC5F80833D3E74FF40073C5F80032B3
:1028700040F20223A36003F1CE73C5F80833A368C6
:10288000C5F804330123AB602B628CE713F0050F0E
:1028900001D00223C4E794F82E30002BC0D00423CB
:1028A000BEE700BF0030004048070020540700206A
:1028B00002029C011FB500230DF10F028DF80F10CD
:1028C000009201930122062107F0CAFB9DF80F40F8
:1028D00024B1012000F036FA04B010BD00F080FAF7
:1028E000012809D1204600F02DFA002000F072FAEC
:1028F000002000F0E7F9EFE700F044FAF5E7000008
:1029000008B5182102F05DFB0023436003785BB932
:10291000037A062B0BD1837A4BB9054B017B1878D0
:10292000BDE80840FFF7C6BF4FF0FF33436008BD66
:10293000D42B0020032810B51FD0042830D0022843
:1029400043D1224B1B786BB100F04AFA0446B0FA2F
:1029500080F0400900F04AFAACB30420BDE8104012
:1029600000F0B0B900F030FA194BB0FA80F1490923
:102970001878BDE81040FFF79DBF144B1A782AB9AC
:1029800001221A70BDE8104000F078B900221A70D8
:1029900000F086F900F024FABDE8104000F0F4BA27
:1029A0000C4B1B7823B10020BDE8104006F082BF1D
:1029B00002200FF051F9012807D044F62160BDE84C
:1029C0001040FEF7AFB80520C8E710BD242700204F
:1029D000D42B002025270020FDF7FABC73B5002476
:1029E00001A9064601940DF001FB0546304602F0B0
:1029F00069FBEB1E0C2B13D8DFE803F02512070749
:102A000007121212121212123600194BB0B901221B
:102A100003201A7000F056F941F2883011F0F0FEF0
:102A2000304600F033FC20B1C0F59C402030FEF76A
:102A300079F8304602F0E6F802B070BD02201C7052
:102A400000F040F9ECE70028EAD1094B1870BFF319
:102A50004F8F0849084BCA6802F4E0621343CB6009
:102A6000BFF34F8F00BFFDE706F02CFED8E700BF95
:102A70002527002000ED00E00400FA057FB54FF0A7
:102A80001023D3F80433052B14D0514B0122C3F883
:102A90000425D3F80024002AFBD04FF01022052192
:102AA000C2F804130022C3F80425494AD2F80034BE
:102AB000002BFBD04FF080430122C3F88025C3F8E0
:102AC0007825FEF7BDF808B1FEF72CF84148424CD6
:102AD00000F0D4F900F096F800F060F900F008FA80
:102AE000002000F0EFF83D4B00251D703C4B1D8091
:102AF0003C4B1D7002F082FF02F082FF02A8FDF73E
:102B00004FFC02A806F01EFF374806F03BFF2846A0
:102B100000F086FB062005F077FEC32005F07AFE64
:102B2000284606F007FF07F097FE304BC0F89C30B0
:102B30002F4800F02BFD82222946204623F0C0FBBF
:102B400040F201230B262380142240F60123294959
:102B50006380A01D267123F08BFB14233246264987
:102B6000637104F1260023F083FB0822234984F8D3
:102B7000256004F1460023F07BFB082384F84530F0
:102B8000324603231E4984F8553004F1570023F0E0
:102B90006FFB012284F8812084F8566084F8655028
:102BA000A4F8785014F8810B2B460621CDE9004596
:102BB00007F056FA04201FF0E2F806F0EDFE20B10F
:102BC000C0F59C402030FDF7ADFF06F0E7FEFCE7C6
:102BD00000E0014035290000D42B00201502002020
:102BE000160200201802002000F8FF07012900004B
:102BF00045010020527B0200677B0200737B0200CC
:102C00007C7B02001FB5094A1068516801AB03C301
:102C100090681860002201A90548FFF73DFA08B145
:102C2000FDF780FF05B05DF804FB00BF887B020064
:102C3000B80100201FB5064B0FCB6C4684E80F008F
:102C400001231A4621460348FFF7E6FA04B010BDF7
:102C5000947B0200B80100201FB5064B0FCB6C46D9
:102C600084E80F000223012221460348FFF7D4FA2B
:102C700004B010BDA47B0200B80100201FB5064BB4
:102C80000FCB6C4684E80F00022301222146034843
:102C9000FFF7C2FA04B010BDB47B0200B8010020F7
:102CA0001FB5064B0FCB6C4684E80F0001231A4674
:102CB00021460348FFF7B0FA04B010BDC47B020000
:102CC000B80100201FB505280DD8DFE800F0030E7D
:102CD000181B1E2A4FF0A0430322C3F844274FF4C9
:102CE0000032C3F8082504B010BD4FF0A043032202
:102CF000C3F844274FF40032C3F80C25F3E7FFF77D
:102D0000ABFFF0E7FFF796FFEDE7074B6C460FCB05
:102D100084E80F000223032221460448FFF77CFACF
:102D2000E1E76C46024BF2E7D47B0200B8010020D9
:102D3000E47B02004FF0A0434FF08052C3F80C2513
:102D40007047000010B50C4B1B78012B044608D1CE
:102D500000224FF480410948FDF7AFFF08B1FDF7AD
:102D6000E1FE4FF0A0434FF08052C3F8082514B1A4
:102D7000034B01221A7010BD2627002028270020AF
:102D8000272700204FF0A0434FF08052C3F80C25B6
:102D9000014B00221A7070472727002008B5084A07
:102DA00008480021FDF77EFF08B1FDF7BBFE4FF09C
:102DB000A0430322C3F87027BDE80840FFF7E2BF35
:102DC000352D0000F47B0200014B1878704700BFDE
:102DD00027270020014B1870704700BF27270020CD
:102DE000014B1878704700BF26270020014B187050
:102DF000704700BF2627002008B5002240F6CD41CD
:102E00000448FDF75AFF18B1BDE80840FDF78ABE37
:102E100008BD00BF502700204FF0A0430E49D3F853
:102E200010350A78DB0103D401320A70FFF7E4BFE2
:102E30000A4B0220322A587007D900220A70042255
:102E40005A705A683AB158781047082AF9D90022BE
:102E50000A700322F4E77047482700200802002088
:102E6000182808D14FF0A0430122D3F81035024BA7
:102E70005A70FFF7C1BF70470802002013B5164A09
:102E8000044600211548FDF70DFF08B1FDF74AFE85
:102E9000FEF7E8FE20B9FEF7ADFE08B1FDF742FEF1
:102EA0000F4B1A889B78ADF804206FF341038DF81F
:102EB00006300C4A032301A918208DF80530FEF7CF
:102EC000DBFE08B1FDF72EFE01211820FEF750FFB2
:102ED000054B5C6002B010BD192E0000FC7B0200A7
:102EE000F87B0200612E00000802002070470000FD
:102EF0002DE9F84300221F491F48FEF7B7F908B132
:102F0000FDF710FE4FF010231B4E5B691B4DF4685C
:102F1000DFF870801A4F4FF08053B1461A695B6931
:102F20002C603369A3424FF010030DD8154A29686D
:102F30001148FEF7A4F9124B1B88C3B198F808009A
:102F4000BDE8F843FFF752BF424621464846FEF728
:102F500096F9D8F80030B3F1DF3F06D1D8F8043045
:102F60003A88934224BF3B802C601034D9E7BDE8F7
:102F7000F88300BF247B0200440300207027002058
:102F8000742700207827002073B5174C174B226850
:102F90001969174E10328A420546226001D23288E2
:102FA0004AB9D9681148216000230122FEF7B6F919
:102FB00008B1FDF7B7FD33880E4A0C489560013320
:102FC0009BB24FF0DF31C2E900133380002300933E
:102FD00021681023FEF774F920B102B0BDE87040FB
:102FE000FDF7A0BD02B070BD702700204403002093
:102FF0007427002078270020BFF34F8F0549064B28
:10300000CA6802F4E0621343CB60BFF34F8F00BF86
:10301000FDE700BF00ED00E00400FA05054B1B686A
:10302000082B01BF044B1868B0FA80F0400918BFA4
:1030300000207047300100103401001008B54FF037
:1030400080430022C3F80C21C3F81021C3F83825AF
:103050004FF0805203F54043D2F80414C3F8201512
:10306000D2F80814C3F82415D2F80C14C3F82815A4
:10307000D2F81014C3F82C15D2F81414C3F8301574
:10308000D2F81814C3F83415D2F81C14C3F840153C
:10309000D2F82014C3F84415D2F82414C3F8481504
:1030A000D2F82814C3F84C15D2F82C14C3F85015D4
:1030B000D2F83014C3F85415D2F83414C3F860159C
:1030C000D2F83814C3F86415D2F83C14C3F8681564
:1030D000D2F84014C3F86C15D2F84424C3F8702514
:1030E000FFF79CFF10B1444B444A1A60FFF796FF6C
:1030F00018B1434BFB22C3F81825FFF78FFF48B1E7
:103100004049414B0A681B6822F00F0203F00F038D
:1031100013430B60FFF782FF18B13C4B4FF4007272
:103120001A604FF08043D3F80024D10744BF6FF0FA
:103130000102C3F80024364AD2F8883043F4700301
:10314000C2F88830BFF34F8FBFF36F8F4FF010235B
:10315000D3F80C22D2071ED52E4B0122C3F804252A
:10316000D3F80024002AFBD04FF01022D2F80C3202
:1031700023F00103C2F80C32264B1A46D3F8001490
:103180000029FBD00021C3F80415D2F80034002B2D
:10319000FBD0FFF731FFD3F80022002A03DBD3F87E
:1031A0000432002B23DA1B4B0122C3F80425D3F889
:1031B0000024002AFBD04FF010221221C2F8001286
:1031C000D3F80024002AFBD04FF010231222C3F8BA
:1031D0000422104B1A46D3F800140029FBD000211A
:1031E000C3F80415D2F80034002BFBD0D1E70A4B0A
:1031F0000A4A1A6008BD00BF8C560040488103008F
:1032000000F00040E40E00405802001040960240DA
:1032100000ED00E000E00140100200200090D0032B
:1032200006F09EBB2DE9F84F1C469DF828308046DD
:103230008946924663B1661E002BDFF838B014BF92
:103240004FF0FF370127002524B92846BDE8F88F45
:103250001E46F1E71AF806305A46A9EB050108EBBD
:10326000050023F069FB0028F0DB013C05443E44E7
:10327000E4B2E9E7007C020007B5012300930823CC
:10328000FFF7D0FF03B05DF804FB000070B588B015
:1032900000236946009304460CF0A8FE064620462B
:1032A00001F010FF0546044606F070FB731E122B5A
:1032B0005AD8DFE803F00A595959151C353F5959B6
:1032C000595B5959575959595B0000200EF0C4FCFD
:1032D00010F1FF3418BF4FF0FF34204608B070BD26
:1032E000002D41D108B10220F0E70420EEE79DB99E
:1032F0001122294603A822F0E3FF01A806F02AFBC9
:1033000001AA112103A8FFF7B7FF0028E5DA204939
:1033100003A823F045FBE0E70028E4D10446DCE7FE
:10332000002DE5D00028F9D041220221194805F0EE
:10333000B1FFF3E79DB91122294603A822F0C0FF8F
:1033400001A806F007FB01AA112103A8FFF794FFCB
:103350000028C8DA0E4903A823F022FBC3E7412264
:103360000421E3E706F0AEF90024B6E7009C112241
:10337000002103A822F0A4FF221D112103A8FFF7BA
:103380007BFF0028F0DA024903A823F009FBEBE7F2
:10339000057C0200591C01002DE9F8431E4C07462C
:1033A00091461E46884600F00FFBB4F81A573423A6
:1033B000F201022F25F0070542EA880284F81D3742
:1033C0004FF0120334BF4FF0020E4FF0000E3D439A
:1033D00042EAC90284F81E37002F4FF06C034EEA10
:1033E000020205F0E70584F81F3742F6414318BF93
:1033F0004FF4305345EAC02084F81C27A4F8223744
:103400007F220023A4F81A07A4F82027A4F8242771
:1034100084F82637BDE8F883882C002030B40B4DA3
:10342000B5F8274724F00F04204320F0F00040EACD
:10343000011020F4706040EA0220C0F30B0040EA63
:103440000330A5F8270730BC0AF06ABE882C00209C
:1034500070B583798B4205460C46164604D8BA21CE
:103460004FF4496002F066F9043425F8146070BD29
:1034700070B5C3798B4205460C46164604D8C82160
:103480004FF4496002F056F9AB791C44043425F836
:10349000146070BD70B51C4D1C4E95F82E2700238E
:1034A000082102F0F00285F82F1763F307120921B3
:1034B00085F82937A5F82A37A5F82C3785F830176D
:1034C00085F82E2785F86C371C4605F2297536F8E5
:1034D0001420E1B228460134FFF7BAFF082CF6D1D8
:1034E0000B4E0C4D0024325DE1B228460134FFF74B
:1034F000BFFF092CF7D10C23032207210020BDE8D0
:103500007040FFF78BBF00BF882C00200E7C0200AC
:103510001E7C0200B133002008B50A4B93F87921D4
:10352000003218BF0122114601230220FFF734FFA9
:1035300001220C2311460020FFF770FFBDE8084070
:10354000FFF7A8BF882C002007B50F4B93F86C2716
:10355000052A0AD8511C83F86C1703EB8203C3F8C1
:103560005407002003B05DF804FB0423019200938C
:103570004FF0FF3040F239134FF44962012106F059
:1035800005F86FF01C00EDE7882C00202DE9F743CB
:1035900006F078FA07F060F943681B78019304237A
:1035A00000934FF4496240F2471301214FF0FF307E
:1035B00005F0ECFF002607F04FF943681B78F4B2E2
:1035C000A3420CD806F082FA00286CD140F26111B7
:1035D0004FF4496003B0BDE8F04302F0ABB807F028
:1035E0003BF94368D3F8013053F82430D3F8150081
:1035F000FFF7AAFF07F030F9D0F8AC30A50063B1AF
:1036000007F02AF9D0F8AC7007F026F94368D3F830
:10361000013053F824301878B847002707F01CF918
:103620004368D3F801305B591B7CFCB2A34201D83C
:103630000136C0E707F010F94368D3F801305B5951
:10364000D3F81130C4EB04142344D3F80B305BB12E
:1036500007F002F94368D3F801305B59D3F8113011
:103660002344D3F80B30984707F0F6F84368D3F8B3
:1036700001305B5993F8008007F0EEF84368D3F807
:1036800001305B59B3F8019007F0E6F84368D3F8CE
:1036900001305B59D3F811204946224440460AF0D4
:1036A000C9F80137BAE703B0BDE8F08308B5FDF704
:1036B0001DF9024B012283F8282108BD743A00202D
:1036C000034B93F828310BB9FFF7F0BF704700BFE9
:1036D000743A0020024B01229A75FDF73FB900BFF2
:1036E000743A00200148FDF723B900BF7538002067
:1036F000034B9A7D012AFCD093F817310370704771
:10370000743A002010B50B4B044693F84600FDF7C1
:103710003EF964B9FCF726FE074B9C68FCF720FED7
:1037200014F0FF0005D1BDE81040FDF735B90120C8
:10373000F9E710BD3C380020743A0020F7B5124C70
:10374000012506460F46FCF70DFEA560FCF708FEB6
:103750000E4B304693F8373004F117023946FDF727
:103760002EF9064668B900904FF4937346F67A62D4
:1037700029464FF0FF3005F009FFE560256025750B
:10378000A66003B0F0BD00BF743A00203C380020B2
:103790002DE9F041154C06460F46FCF7E3FDA56800
:1037A000FCF7DEFD15F0FF0505D00123E360236083
:1037B0002375BDE8F081304684F8185101F088FA8D
:1037C0000230C0B2E075304601F078FA80463046EB
:1037D00001F07EFA4146024604F1180022F048FD4D
:1037E00029463846BDE8F041FFF7A8BF743A0020EB
:1037F000044B9A7D012A02BF00229A7583F81701B3
:10380000704700BF743A00202DE9F041194C1A4D61
:103810004FF00008012607462E60C4F80C80FCF724
:10382000A5FDC4F81C01C4F8088094F818216AB1F9
:1038300094F81831013BDBB24146042084F818317A
:10384000FFF77CFF00232B60BDE8F0812660267522
:10385000002FF7D07A78D20644BF0322C4F8302173
:1038600038464FF0000258BFC4F83061E260FDF7FF
:10387000C4F8E7E7743A00202038002073B5042329
:1038800001240E4D019006460093214640F27D131F
:1038900046F67A624FF0FF302C6005F077FE084B59
:1038A00000219960D3F8242129602244C3F82421FF
:1038B000DE601C601C7502B070BD00BF20380020A7
:1038C000743A00202DE9F74F2B4D2C4C99460123DB
:1038D0002B60E36D042B06468A46934644D8A36DBD
:1038E00004F16007DF423FD090F80080A8F10902A0
:1038F000762A07D94FF4CC7146F67A60019301F02D
:1039000019FF019BDF5D4146384601F029FA424626
:10391000711C22F0ADFC384601F0E1F900F802BC60
:10392000384601F0DCF9042100F801AC384601F01A
:1039300048FBEB21C0F80090384601F0CBFBA36DAB
:10394000E16D01330522B3FBF2F202EB82029B1A16
:103950000131A3650A4BE165012204295A601A75F9
:1039600002D90020FDF70EF83046FDF746F8002397
:103970002B6003B0BDE8F08F203800203C380020D9
:10398000743A002010B50F4C94F85C316FF30403C7
:1039900084F85C3104F5B27001F072FED4F8643141
:1039A00003F0784343F0FF6343F4FF23C4F864312A
:1039B00094F85C3143F0200384F85C311023A4F8C0
:1039C0005E3110BD882C0020082070472DE9F041A1
:1039D0001A4AD2F85436012B2AD9D2F848E6D2F83E
:1039E0004CC61F460024A74212D8A34223D9D2F8BE
:1039F0004C36D2F848261B5D03EB830403EB4404EA
:103A00002244D288824216D10B700120BDE8F08199
:103A10003E1B04EB56061CF8065005EB850805EB2B
:103A200048057544ED88854234BF741C3746DAE793
:103A30000BB10024D9E70020BDE8F081882C0020DC
:103A4000F8B50024104D07462646D5F85436E2B2A4
:103A5000934203D89B1BC5F85436F8BDD5F84C16D5
:103A600011F802E0BE4501EB02000AD1013B9A4287
:103A700006F1010605D002F1010E71449A1A22F0F6
:103A800005FC0134E1E700BF882C002010B500F5EB
:103A90002D3404F2A514014401EB441101F52D303D
:103AA00000F2A5100A4403F52D3302EB401203F295
:103AB000A513134402F52D3202F2A51203EB4212B4
:103AC000034B1B68B2FBF3F003FB1020C0B210BD28
:103AD00088000020CB0801F00701C05C012303FA35
:103AE00001F108407047CA0801F00703012199401D
:103AF000835C194381547047CA08012301F0070110
:103B00008B40815C21EA0301815470472DE9F84F15
:103B10000F460978DFF8EC801646BA7801F52D33A8
:103B20000A4403F2A51302EB43133A7903F52D314E
:103B30001A44BB7901F2A51103F52D3302EB4112B2
:103B400003F2A513134402F52D3202F2A51203EB82
:103B500042131C22B3FBF2FA02FB1A335FFA83FA18
:103B6000054654464FF0FF094FF00A0B2146244802
:103B7000FFF7B0FFB8B10BFB04800822394600F212
:103B8000295022F067FB78B90BFB048808F5A5687B
:103B9000B8F80930AB4201D0A8F8095034706FF082
:103BA0001A00BDE8F88FA1460134E4B21C22B4FB30
:103BB000F2F302FB1344E4B2A245D7D1B9F1FF0FEF
:103BC00003D16FF01C00BDE8F88FDFF838800A24BD
:103BD00040F2295014FB090004FB098408223946ED
:103BE000404422F045FB08F24160A4F831554946B3
:103BF000FFF779FF86F800900020BDE8F88F00BF3E
:103C0000C9320020882C00201B2838B504460D46F8
:103C100004D801460A48FFF75DFF18B99E217020BD
:103C200001F088FD40F229510A2010FB04100549DB
:103C3000082201442846BDE8384022F019BB00BFE5
:103C4000C9320020882C00202DE9F0470D4601786C
:103C50008278DFF8948001F52D330A4403F2A5132E
:103C600002EB4313027903F52D311A44837901F2F3
:103C7000A51103F52D3302EB411203F2A5131344F2
:103C800002F52D3202F2A51203EB42131C22B3FB04
:103C9000F2F702FB1733DFB26FF4C86306463C4607
:103CA0004FF00A0908EB030A21464046FFF712FFCE
:103CB00058B109FB04A00822314600F2295022F035
:103CC000C9FA10B92C70BDE8F0870134E4B21C22A7
:103CD000B4FBF2F302FB1344E4B2A742E4D16FF069
:103CE0001B00BDE8F08700BFC932002007B50DF109
:103CF0000701FFF7A9FF014640B90422054822F059
:103D0000DFFA9DF807100348FFF7EDFE03B05DF8FA
:103D100004FB00BFC93200201B2838B504460D46FD
:103D200004D801460748FFF7D5FE18B9E4217020F2
:103D300001F000FD044B0A2202FB0434B4F83135D3
:103D40002B8038BDC9320020882C00202DE9F0419D
:103D5000074688460D4811461446FFF7BBFE88B15A
:103D60000B4D0A2640F2295016FB020006FB0454B4
:103D700008224146284422F07BFAA4F8317500203D
:103D8000BDE8F0816FF01B00BDE8F081C932002072
:103D9000882C002008B5024601460648FFF79AFE27
:103DA00028B111460348FFF7A7FE002008BD6FF0B9
:103DB0001B0008BDC93200202DE9F843DFF87890D8
:103DC00007460E462025002400F105082146184824
:103DD000FFF780FEF8B104EB440000F2C940032273
:103DE0004146484422F036FAB0B9254629461048E3
:103DF000FFF779FE0F4805EB4503791D03221844B0
:103E000022F036FA3046394600F8015B0522BDE85B
:103E1000F84322F02DBA25460134202CD6D1202D8E
:103E2000E4D140F24B117020BDE8F84301F082BCB0
:103E30004C31002051310020882C002038B50C4630
:103E4000054606220F49204622F004FA38B92846D2
:103E500008224FF0FF31BDE8384022F031BA14F8A3
:103E6000013B032240F2C94112FB03130649681DBE
:103E7000194422F0FDF9214628460522BDE83840C4
:103E800022F0F6B9277C0200882C002070B51A4E6B
:103E900002EB8204D6F8483602EB44041C44054683
:103EA000627A12F0C00F1FBF247A04EB840204EB85
:103EB0004204E4180622E3880B8020460F4922F0D2
:103EC000C9F938B9284608224FF0FF31BDE87040E3
:103ED00022F0F6B914F8011B032202FB016101F282
:103EE000C941681D22F0C4F9214628460522BDE8D3
:103EF000704022F0BDB900BF882C0020277C020052
:103F000070B51D4E01EB8104D6F8483601EB440430
:103F10001C440546627A12F0C00F1FBF247A04EBDE
:103F2000840104EB4104E41814490622204622F0DF
:103F300091F90146F0B106221149204622F08AF992
:103F400038B908224FF0FF312846BDE8704022F012
:103F5000B7B914F8011B032202FB016101F2C94148
:103F6000681D22F085F9214628460522BDE87040EB
:103F700022F07EB90822E7E7882C00202F7C02007F
:103F8000277C02000A4BD3F8482601EB810301EBA2
:103F9000430111444B7A13F0C00F1FBF097A01EBA4
:103FA000810301EB430189180631022222F060B936
:103FB000882C002037B52B4D00EB8004D5F848360F
:103FC00000EB440423445A7A12F001020CD100920F
:103FD0004FF0FF3040F2A9237022012105F0D6FAFC
:103FE0004FF0FF3003B030BD9A7A511C61F30602E6
:103FF0009A72D5F8483623449B7A5A0604D140F287
:10400000AE21702001F096FBD5F8483623445A7A49
:1040100042F020025A72D5F848361C44607A10F0FB
:10402000C000DFD0247A04EB840204EB4204234472
:104030009A7A511C61F306029A72D5F848362344E5
:104040009B7A5B0604D140F2B921702001F072FB2B
:10405000D5F848361C440020637A43F0200363728D
:10406000C0E700BF882C00202DE9F3414FF0040881
:104070002D4E0190074640F2BD337022CDF80080EE
:1040800001214FF0FF3005F081FA07EB8705D6F8E4
:10409000483607EB45052B445A7A12F001020DD140
:1040A00000924FF0FF3040F2C5337022012105F03D
:1040B0006DFA4FF0FF3002B0BDE8F0819C7A14F049
:1040C0007F041ED13846FFF7BBFCD6F848362B4498
:1040D0005A7A64F300025A72D6F848362B449A7A18
:1040E00064F306029A72D6F848361D446B7A64F37C
:1040F00045136B72D6F85036013BC6F85036002097
:10410000D9E740F2DB330197CDF80080702201211E
:104110004FF0FF3005F03AFAD6F848361D44AB7A36
:1041200043F08003AB72EAE7882C0020F7B53D4CE2
:1041300000EB8005D4F8483600EB45052B440646D5
:104140005A7AD70769D512F0C00F1F7A2DD1FF2FE9
:104150001CBFFF221A72D4F848362B449B7A5806AB
:1041600004D140F2DE21702001F0E4FAD4F84826B0
:104170002A44937A03F17F0161F306039372D4F822
:1041800048361D44AB7A802B0DD1042300934FF0A9
:10419000FF30019640F2FB237022012105F0F6F971
:1041A0003046FFF761FF002039E09B7A590604D1C1
:1041B0004FF43A71702001F0BDFAD4F848262A4431
:1041C000937A03F17F0161F30603937207EB870390
:1041D00007EB4307D4F848363B449B7A5A0604D190
:1041E00040F2EB21702001F0A5FAD4F848263A44B9
:1041F000937A03F17F0161F306039372D4F8483692
:104200002B449B7A5B06BAD13046FFF72DFFD4F8DA
:1042100048361F44FF233B72B1E74FF0FF3003B035
:10422000F0BD00BF882C00202DE9F041224DD5F8CB
:104230005426012A064639D9D5F848E6D5F84CC6A1
:1042400017460024A74221D8A24215D9D5F84C76AA
:104250003B5D03EB830003EB4003D5F848060344C2
:10426000DB888B4202D20134A24205D9601C121BAA
:104270003919384422F00AF8D5F84C361E55D5F8CD
:1042800054360133C5F85436BDE8F081381B04EBD1
:1042900050001CF8003003EB830803EB4803734421
:1042A000DB888B4294BF441C0746CBE70AB100244D
:1042B000CAE71446E0E700BF882C00202DE9F04F44
:1042C000884685B091460746002839D0437902795F
:1042D000C1784078FFF7DAFB5A4D5B4BD5F848E6DA
:1042E000D3F800C00646002334B204EB840204EB8A
:1042F00042047444627AD10723D533B1A17A4906C6
:1043000003D1022B1DD092061BD5721CB2FBFCF60A
:104310000CFB1626F6B2B04208BF0133DBB2032B0A
:10432000E2D1002300934FF0FF304FF4637370220B
:10433000012105F02BF96FF01C0005B0BDE8F08FEE
:10434000CAE7D5F85836D5F8500603934FF00B0B53
:104350000023D5F85826944550D9834213D20BFB3D
:1043600002EA0132C5F858269AF80920D107F0D59B
:104370009AF80A1011F07F0103F10103E9D161F30A
:1043800045128AF80920637AA4F8068043F02003D6
:104390006372A37A5A0604D040F29631702001F07D
:1043A000C9F9062247B33946204621F061FF4FF68E
:1043B000FF73984509D0637ADB0702D53046FFF7D3
:1043C0003FFB41463046FFF72FFF637AD5F8502672
:1043D000DB4303F001031344C5F85036637A03F05E
:1043E0003F0343F00103FF226FF341032272637224
:1043F000002089F80060A0E71449D5E78342C2D2C3
:104400000022C5F858264FF00B0CD5F85826039912
:104410009142B8D99842B6D90CFB02E10132C5F8F5
:10442000582691F809A01AF0010FEED08A7A12F0FE
:104430007F0203F10103E8D1534662F345134B7247
:10444000A1E700BF882C002088000020277C020004
:10445000F8B50F461946064615461C46FFF7B6FA4C
:1044600090B1227802EB820302EB43020C4BD3F8AB
:1044700048361A44537A43F02003537215B120781A
:10448000FFF798FD0020F8BD3FB122463146FFF707
:1044900015FF0DB10028F2D0F8BD6FF01B00FBE74F
:1044A000882C00202DE9F34100220D460DF1070371
:1044B0001146FFF7CDFF20B16FF01B0002B0BDE841
:1044C000F0819DF807301A4F1A49D7F8488603EB58
:1044D000830403EB440408EB04060622304621F073
:1044E000B9FEA8B908224FF0FF31284621F0E8FEB6
:1044F00008221149284621F0ADFE0028DCD0082210
:104500000C49284621F0A6FE0028D5D00020D5E78A
:1045100018F80410032202FB017101F2C941681D61
:1045200021F0A6FE0522711C284621F0A1FEDFE73E
:10453000882C0020277C02002F7C020008B502781E
:104540000B789A4208D105220131013021F082FE18
:10455000B0FA80F0400908BD002008BD2DE9F84FF1
:10456000064643790279DFF890B0DFF890900F4665
:10457000C1784078FFF78AFA4FF0000A0446D8461F
:10458000DBF800205FFA8AF39A4202D80020BDE8E7
:10459000F88F25B205EB850305EB4305D9F84836BE
:1045A0001D446B7ADA070CD513F0C00F14D06B7A68
:1045B00003F0C003802B04D131462846FFF7BEFF2D
:1045C00080B9D8F80030621CB2FBF3F403FB14246A
:1045D000E4B20AF1010AD3E731462846FFF7AEFFFD
:1045E0000028E4D06B7A13F0C00F03D13C70012097
:1045F000BDE8F88F2C7AF9E788000020882C00208D
:1046000073B51C460E4669461546FFF7D5FB214695
:104610006846FFF7A3FF98B1237803EB830203EB0F
:1046200042030F4AD2F8482613445A7A42F0200235
:104630005A7215B12078FFF7BDFC002002B070BDA2
:1046400056B122464FF6FF716846FFF737FE002D40
:10465000F4D00028F2D1EDE76FF01B00EEE700BFC9
:10466000882C002007B500220DF107031146FFF743
:10467000C7FF68B99DF8073003EB830203EB4203E1
:10468000054AD2F848261344D88803B05DF804FBE5
:104690004FF6FF70F9E700BF882C00202DE9F043AA
:1046A0000D4687B081460DF10A014FF000082846FB
:1046B00016461F468DF80B80FFF788F9082204463E
:1046C0009E49484621F0C6FD68B104A94846FFF757
:1046D00073FB0DF10B0104A8FFF740FF002C40D144
:1046E000002852D106E00622944904A821F0C0FD1A
:1046F000002C5CD10DF10A02294604A8FFF7DEFD6B
:1047000060BB9DF80A0038700EB1FFF753FC9DF8AE
:104710000A208B4C02EB820102EB4100D4F84816D0
:10472000014491F90A1000290ADA04230192009346
:10473000702240F2492301214FF0FF3004F026FFA0
:104740009DF80A3003EB830203EB4203D4F84826BA
:10475000134400209A7A6FF3C7129A7207B0BDE82B
:10476000F08320B39DF80A009DF80B3098421ED0CC
:10477000734C00EB8002D4F848E600EB420272442E
:10478000917A4A0606D1FFF76FFC9DF80B308DF841
:104790000A300CE003EB830203EB420296449EF8DE
:1047A0000A2012F07F0F1DD11846FFF75DFC9DF81F
:1047B0000A40DFF88C8104EB840304EB4304D8F84F
:1047C00048361C44002D7FD0062204A9204621F043
:1047D0004FFDE3889D4240F0A280637A43F02003BE
:1047E00063728EE701F07F0102F07F0291422FDDBC
:1047F0009DF80A109DF80BC0D4F848260CEB8C00ED
:1048000001EB810801EB48080CEB400E02EB0809B4
:10481000724499F80A30927AC3F30600C2F3060292
:10482000024462F3060389F80A30D4F84836434458
:10483000022283F808C0D4F848067044437A017213
:1048400062F387134372062204A921F011FDAEE73B
:10485000414603AA1BF0D2FB014630B903AA9DF8DA
:104860000B001BF0CBFB1C30C2D09DF80BE09DF879
:104870000A00D4F8482600EB80030EEB8E0800EB0C
:10488000430C0EEB480802EB08096244917A99F850
:104890000A20C1F30601C2F30603194461F30602BC
:1048A00089F80A20D4F84836434401211872D4F814
:1048B000483663445A7A83F808E061F387125A72E3
:1048C000DD80FFF7BDF860E7E388002B7FF47CAF65
:1048D00004A92046FFF732FE00287FF475AF0622B8
:1048E0001649204621F0B6FC00283FF46DAF0622A1
:1048F0001449204621F0AEFC00283FF465AF9DF836
:104900000A3003EB830203EB4203D8F84826134432
:104910009B7A5B063FF458AF6FF01A001EE74FF624
:10492000FF72934203D09DF80A00FFF789F8E580F3
:1049300029469DF80A00FFF777FC4EE7277C020026
:10494000882C00202F7C02002DE9F041154F164ED7
:1049500000254FF00B083B689D4204D30023C6F8A6
:104960005036BDE8F081D6F8484608FB0544637A26
:10497000DA0714D5A37A5B0604D040F27D4170209B
:1049800000F0D8FEE8B2FFF75BF8637AA27A03F092
:10499000FE036FF306026FF34513A27263720135D3
:1049A000D9E700BF88000020882C0020807900F023
:1049B0003F0070472DE9F8431C4DDFF87480064630
:1049C00035440029D8F80000144614BF0023022300
:1049D00095F8CC20C3EB5003224403F0FF039A4226
:1049E00003DD00273846BDE8F883204600F0E6FBEB
:1049F00081460028F5D000F061FC95F8CC20D8F86D
:104A000000301444E4B20130B4EB530FC7B285F860
:104A1000CC4003D97B21182000F08CFE99F8063099
:104A200066F3000389F80630DCE700BF882C00201D
:104A3000A400002013B50446084689B1012902D01C
:104A4000002002B010BD134A92F8CE30002BF7D1EF
:104A5000114B196892F8CD30C3EB5103052BEFD9F8
:104A6000A279002102F07F02FFF7A4FF014600288F
:104A7000E6D094F906302068002BB7BF002200234F
:104A80000092A388AABF009301221A4604F09EF95F
:104A90000120D6E7882C0020A4000020F0B585B0C6
:104AA0000E4602909DF80E009DF82850ADF80C308F
:104AB00062F3C71065F306008DF80E0002A8FFF739
:104AC000B9FF18BB1A49442000FB0614236C072BBE
:104AD0001FD8E36B06FB0000C3EBC30303445F185E
:104AE00017D0029858509DF80E30BDF80C00B880D1
:104AF000BB71236C01332364E36B013303F00703C1
:104B0000E36391F8C1301D4481F8C150002005B025
:104B1000F0BD042300934FF0FF30019640F265137F
:104B20001822012104F032FD4FF0FF30EFE700BF03
:104B3000882C002000F036BB10B5002908BFAC213E
:104B4000044688B200F0D2FB002102462046BDE8B0
:104B50001040FFF72FBF00210846FFF7EDBF000010
:104B6000054B93F8CC2093F8CD3000219A428CBFAE
:104B700001200846FFF7E0BF882C002010B504464E
:104B8000AC2000F0B3FB012102462046BDE81040F6
:104B9000FFF710BF013808B5C0B200F09DFB0079E7
:104BA00000F0AFFB08BD13B50446AC2000F09EFB3F
:104BB000002300901A4619462046FFF76FFF02B007
:104BC00010BD13B50446AC2000F090FB002300900C
:104BD0001A4601212046FFF761FF02B010BD37B52C
:104BE000002A08BFAC22044690B20D4600F07EFBBE
:104BF0002B460090012200212046FFF74FFF03B013
:104C000030BD0000F8B507460138C0B200F064FBC3
:104C10008679294D06F00106AB19044693F8CC209D
:104C200003799A4204D24FF4EA71182000F082FD11
:104C3000204600F005FB237923B94FF4EE711820CC
:104C400000F078FDAA19217992F8CC3038465B1A29
:104C500082F8CC301AF01CF9442303FB06573A6C57
:104C600042B3BC6B06FB0333C4EBC4041C442C19D5
:104C700020D031462046FFF7DDFED8B13B6C95F8D9
:104C8000C120013B3B64BB6B013303F00703BB63F3
:104C9000A37903F07F039A4204DA40F2311118201D
:104CA00000F048FDA379C3F3060295F8C1309B1AC2
:104CB00085F8C130F8BD00BF882C0020013808B548
:104CC000C0B200F009FB00F10C024088104408BD9E
:104CD00008B50138C0B200F0FFFA008808BD38B549
:104CE0000546FFF7EBFF04462846FFF7F1FF204497
:104CF00038BD10B50C46FFF7E1FF204410BD38B5B4
:104D000004460D4621B940F25121182000F012FD51
:104D100024B940F25221182000F00CFD601EC0B2F0
:104D200000F0DAFA0446681EC0B200F0D5FA227923
:104D30000379934201460CD1B822A5795A43204603
:104D400021F096FAA37905F0010565F30003A3713C
:104D500038BD40F263211820BDE8384000F0EABCBD
:104D60002DE9F84306460138C0B20F4600F0B4FA08
:104D700090F8049090F806800546484600F0C1FA85
:104D8000B84208F00108044604D84FF41F711820F7
:104D900000F0D0FC0C2200212846E41B21F090FA00
:104DA0006408AB792F80A2B22C4468F3000314F09E
:104DB0000304AB7185F8049008D16A8030461AF07C
:104DC00067F83046BDE8F843FFF778BFA3B29A42D0
:104DD000F3D3D31A6B80F1E7F8B506460138C0B2B9
:104DE00000F07AFA04460779857930461AF050F8CF
:104DF0000C220021204621F063FAA379277105F0E7
:104E0000010565F30003A37104F10C00F8BD10B5B2
:104E10000C46FFF753FF201A10BD70B50646013847
:104E2000C0B20D4600F058FA044620B94FF44D7157
:104E3000182000F07FFC3046FFF74AFFA84204D25A
:104E400040F23631182000F075FC2188491B218082
:104E500070BD70B506460138C0B20C4600F03CFA91
:104E6000054620B940F24931182000F063FC304675
:104E7000FFF72EFFA04204D240F24A31182000F082
:104E800059FC2B88A4B21B1B2B806B881C446C80A4
:104E90003046BDE87040FFF711BF2DE9F0410746ED
:104EA0000138C0B20E4600F017FA054620B940F2AC
:104EB0006631182000F03EFC287900F022FA6C8858
:104EC0002B888046041B3846E41AFFF701FF304464
:104ED0008045A4B204D240F26B31182000F02AFCC5
:104EE000A64217D93846FFF7E9FE341BA4B20146A3
:104EF0002A88001B21F0CAF92B8833442B806B8849
:104F00001C1B6C803846FFF7D9FE2B889E1B304453
:104F1000BDE8F0810024EFE72DE9FF4107460138A5
:104F2000C0B20C4600F0D8F9054620B940F2DA21AB
:104F3000182000F0FFFBA30718BF0334287918BF1F
:104F400004F0FC0400F0DDF92B8823449842064667
:104F50001AD24FF0080840F2E923182201214FF03D
:104F6000FF3002970195CDF8008004F00FFB02940A
:104F70002B880193CDF8008040F2EA23182201210A
:104F80004FF0FF3004F002FB2B8823449E4204D2F2
:104F900040F2ED21182000F0CDFB2B886A881344E5
:104FA00023449E4207D221463846FFF776FF21462A
:104FB0003846FFF732FF0C35301B284404B0BDE8FB
:104FC000F081C9B2FFF7A8BF38B50C46C9B2FFF7E8
:104FD000A3FF054618B12246002121F071F92846A9
:104FE00038BD70B506460138C0B20D4600F074F900
:104FF000044620B94FF46371182000F09BFB207920
:1050000000F07FF923882B44984204D240F28F317C
:10501000182000F08FFB63889D420AD93046FFF7C5
:105020004DFE63882288EB1A0146184421F02EF9C0
:1050300065802388ADB22B44238063885D1B658027
:105040003046BDE87040FFF739BE013810B5C0B238
:105050000C4600F041F90246FFF7A8FC9379204383
:10506000410860F3000361F34303010961F3041392
:10507000400960F34513937110BD013810B5C0B2FB
:105080000C4600F029F90246FFF790FC937920EADC
:105090000400410860F3000361F34303010961F375
:1050A0000413400960F34513937110BD0E21FFF7FF
:1050B000E4BF08B50138C0B200F00EF9BDE8084001
:1050C000FFF774BC08B50138C0B200F005F9B0F9BB
:1050D000070008BD013810B5C0B20C4600F0FCF85E
:1050E000A0F8074010BD0000084B1868084B4008A6
:1050F00093F8CD200238824206D293F8CC30984201
:105100008CBF00200120704701207047A4000020C0
:10511000882C00201FB50B4B1B6803930A4B93F898
:10512000CC20029293F8CD3001930C2300931822E7
:1051300040F2534301214FF0FF3004F027FA05B04D
:105140005DF804FBA4000020882C002008B501387D
:10515000C0B200F0C1F8407908BD013810B5C0B246
:105160000C4600F0B9F8447110BD0000014B83F803
:10517000CE007047882C0020014B93F8CE0070477A
:10518000882C0020054B064A93F8CD301268B3EB0B
:10519000520F34BF01200020704700BF882C002030
:1051A000A4000020034B1A78034B0021D3F8D00051
:1051B00021F086B894000020882C0020F8B51E4904
:1051C0001E4BD1F8D0601D6800221346AB4202D1BD
:1051D00000242046F8BDDC0803F00707345D3C419D
:1051E000E40754BF01320022824203F10103EDD1F2
:1051F0001A1AD1F8C430B82404FB0234002CE8D0C9
:1052000000254FF0010E854206D10C2200212046D8
:1052100021F056F82571DCE7AB18DE08D1F8D07024
:1052200003F0070317F806C00EFA03F343EA0C0372
:10523000BB550135E7E700BF882C0020A400002003
:105240002DE9F0471A4C1B4BD4F8C450DFF8689096
:10525000451BED105D4380460026EDB298F8043002
:105260009E4201D3BDE8F087D9F8003005EB060A6D
:105270009A4503D37921172000F05CFA4FEADA0748
:10528000D4F8D030D95D0AF0070A41FA0AF1CB0709
:1052900003D47A21172000F04DFAD4F8D01001235E
:1052A00003FA0AF2CB5D23EA0203CB550136D5E7B8
:1052B000882C0020A737BDE9A4000020044BD3F8B8
:1052C000C430C01A034BC0105843C0B2704700BF6F
:1052D000882C0020A737BDE9034BD3F8C430B8228F
:1052E00000FB0230704700BF882C0020AC2881BF33
:1052F0000B30B823B0FBF3F001308CBFC0B20120FB
:10530000704738B1013800EB4003C0EBC300C00068
:10531000AC3080B2704738B50D46044600B121B9B3
:105320003C214FF6AC0000F005FA04222946204645
:1053300020F09EFF236823F07843236038BD70B5CA
:105340000C461646054620B945214FF6AC0000F044
:10535000F1F924B146214FF6AC0000F0EBF924B28C
:1053600026F0784655F8243003F07843334345F867
:10537000243070BD7FB506460D46144622B954212F
:105380004FF6AC0000F0D6F9FF23237076B104236A
:1053900000934FF0FF30019664234FF6AC020121D9
:1053A00004F0F4F86FF01B0004B070BDA5F10B031E
:1053B0000F2B00D825702378FF2B4FF00000F3D17E
:1053C0000823029000934FF0FF30019575234FF6AC
:1053D000AC02012104F0DAF86FF01600E4E77FB5C3
:1053E00006460D46144622B985214FF6AC0000F062
:1053F000A1F9FF23237076B1042300934FF0FF300F
:10540000019695234FF6AC02012104F0BFF86FF02E
:105410001B0004B070BDA5F10B030F2B00D8257045
:105420002378FF2B4FF00000F3D108230290009364
:105430004FF0FF300195B1234FF6AC02012104F08B
:10544000A5F86FF01600E4E738B50D46044620B91C
:10545000FD214FF6AC0000F06DF925B1FE214FF6AD
:10546000AC0000F067F954F8250020F0784038BD12
:1054700038B50D46044628B94FF488714FF6AC0094
:1054800000F058F92DB140F211114FF6AC0000F0C8
:1054900051F954F82500C00E38BD37B504460D4605
:1054A00029B940F287114FF6AC0000F043F924B956
:1054B0000B232B70204603B030BD00232B70042338
:1054C00000934FF0FF30019440F27D134FF6AC0291
:1054D000012104F05BF86FF01B00ECE737B50446E0
:1054E0000D4629B94FF4C7714FF6AC0000F022F910
:1054F00024B91A232B70204603B030BD00232B7033
:10550000042300934FF0FF30019440F27D134FF6D7
:10551000AC02012104F03AF86FF01B00ECE72DE932
:10552000F0430C4687B017469846054620B9C2217D
:105530004FF6AC0000F0FEF824B1C3214FF6AC00EA
:1055400000F0F8F824B20DF1170155F824304FEAB5
:10555000D3694846FFF7C2FF064620B1C7214FF680
:10556000AC0000F0E7F89DF81730BB4212D20823D8
:105570000093CDF808900197CD234FF6AC0201219E
:105580004FF0FF3004F002F86FF01606304607B017
:10559000BDE8F08355F82430012123F07842B9406A
:1055A000B8F1000F09D022EA010203F0784322F09B
:1055B00078421A4345F82420E8E70A43F5E737B56F
:1055C0000C46114602AA054602F8011D2046FFF7C7
:1055D000D1FE48B90CB11B3CE4B200239DF8072072
:1055E00021462846FFF79BFF03B030BD73B50E463A
:1055F000054628B940F221114FF6AC0000F09AF8A8
:105600002EB14FF491714FF6AC0000F093F8314693
:10561000284655F82640FFF72BFF0DF1060124F030
:1056200078440546FFF739FF28B140F229114FF6BB
:10563000AC0000F07FF80DF107012846FFF74EFFA0
:1056400028B140F22B114FF6AC0000F073F89DF832
:1056500006309DF8071000208B4201D902B070BDC2
:1056600024FA03F202F0010210440133C0B2DBB2AB
:10567000F2E70A460021FFF762BE0021FFF7E4BE11
:1056800010B5044628B94FF4D0714FF6AC0000F0C5
:1056900051F804220021204620F012FE236823F056
:1056A0007843236010BDF8B506460C461F461546E4
:1056B00002B12BB94FF4EC714FF6AC0000F03AF8A0
:1056C000FF231D2E2B703B7020D00AD896B11C2EC4
:1056D00017D04FF406714FF6AC00BDE8F84000F06B
:1056E00029B81E2E1FD01F2EF3D104231A2C2B7085
:1056F00005D9F8BDA4F10B032E700F2B19D83C70FF
:10570000F8BD01231A2C2B70F9D9F8BD02232B7098
:10571000A4F11B03DBB2072B01D83B70F8BD3E2C74
:1057200007D10823F9E7233C0323E4B22B701A2C9A
:10573000E4E7F8BD30B585B00823029101900093ED
:1057400004465F230D464FF4066201214FF0FF30FF
:1057500003F01CFF054BD3F8E03713B12946204670
:10576000984705B0BDE83040FAF7F6BD882C002018
:10577000F8B5734C734BC4F8C430054638B1724A5F
:105780001268B8214A431846002120F099FD6F485D
:10579000C4F8D00035B16C4B1A680732D20800212A
:1057A00020F08EFD6A48C4F80C0235B1664B1A68C9
:1057B00052080C32002120F083FD6648C4F81C0812
:1057C0002DB1614B1A680021013220F079FD624849
:1057D000C4F8200835B15C4B1A680832D2080021A1
:1057E00020F06EFD5D48C4F8240835B1564B1A68A8
:1057F0000832D208002120F063FD594B5948C4F803
:105800009033C4F89403584E25B132780021D20069
:1058100020F056FD554B5649564FC4F88C330023A3
:1058200032789342C0F08180A5B1534B4F481A782B
:10583000002120F045FD4E4B32781B784D485A43ED
:10584000002120F03DFD4D4B45481A780021920083
:1058500020F036FD4A48C4F8980335B1494B1A6820
:10586000002102EBC20220F02BFD474820603DB131
:10587000464B1A68C2EBC2020C32002120F020FD18
:105880004348206335B1414B1B680B225A4300212A
:1058900020F016FD3F4860603DB13C4B1A681F3256
:1058A00052099200002120F00BFD3B48C4F83C0354
:1058B00035B13A4B1B680A225A43002120F000FD03
:1058C0003748C4F8480635B1364B1B680B225A439B
:1058D000002120F0F5FC3448C4F84C0625B1314BCA
:1058E00000211A6820F0ECFC3048C4F8240225B1ED
:1058F0002C4B00211A6820F0E3FC2D48C4F820024C
:1059000035B12C4B1B6813225A43002120F0D8FCE0
:105910002948C4F81C048DB1284B1A68002102EBF9
:105920004202BDE8F84020F0CBBC0A78D4F89403DA
:1059300003FB027240F83320013371E7F8BD00BF6A
:10594000882C0020AC0B0020A4000020880A002036
:1059500064250020422500203D2500203825002018
:10596000BC090020FC0800208C0000201827002023
:10597000B000002000270020B10000208D00002092
:105980001C0A00209C000020900A0020A800002093
:10599000A02500208C0A0020AC22002098000020C6
:1059A0007C0700208800002080250020DC080020E3
:1059B000D8220020A00000207C0B002090000020B6
:1059C00008B540F688320021094820F079FC102201
:1059D0000021084820F074FC4FF40E7200210648A4
:1059E00020F06EFC0120BDE80840FFF7C1BE00BFFB
:1059F000882C0020103800203C3800207047000020
:105A000070B5694D694E88B00124FFF7D9FF85F85C
:105A1000704B00F0E3F8FAF7FBFC3046FAF750FD64
:105A200095F8DD3243F0040385F8DD32FAF798FC8F
:105A3000FFF780F8304602F0C3FD03F0EFFC15F0ED
:105A400051FAFDF73DFE19F0ADF903F0DDFD11F05F
:105A5000D1F90AF091F806F008FDFFF781F8002669
:105A600085F88408214600964FF4B57377224FF0ED
:105A7000FF3003F08BFD4FF40A7307934FF4CC73A0
:105A800006934FF4F47305934FF4027304931C20B0
:105A900040F68831C42210238DE80F0004252146EA
:105AA0004FF4B97377224FF0FF3003F06FFD2146BA
:105AB0000194009540F2731377224FF0FF3003F00A
:105AC00065FD4FF4277301932146009540F275134D
:105AD00077224FF0FF3003F059FD4C23019321460C
